{
  "_format": "hh-sol-artifact-1",
  "contractName": "Marketplace",
  "sourceName": "contracts/Marketplace.sol",
  "abi": [
    {
      "inputs": [
        {
          "internalType": "uint256",
          "name": "_feePercent",
          "type": "uint256"
        }
      ],
      "stateMutability": "nonpayable",
      "type": "constructor"
    },
    {
      "anonymous": false,
      "inputs": [
        {
          "indexed": false,
          "internalType": "uint256",
          "name": "itemId",
          "type": "uint256"
        },
        {
          "indexed": true,
          "internalType": "address",
          "name": "nft",
          "type": "address"
        },
        {
          "indexed": false,
          "internalType": "uint256",
          "name": "tokenId",
          "type": "uint256"
        },
        {
          "indexed": false,
          "internalType": "uint256",
          "name": "price",
          "type": "uint256"
        },
        {
          "indexed": true,
          "internalType": "address",
          "name": "seller",
          "type": "address"
        },
        {
          "indexed": true,
          "internalType": "address",
          "name": "buyer",
          "type": "address"
        }
      ],
      "name": "Bought",
      "type": "event"
    },
    {
      "anonymous": false,
      "inputs": [
        {
          "indexed": false,
          "internalType": "uint256",
          "name": "itemId",
          "type": "uint256"
        },
        {
          "indexed": true,
          "internalType": "address",
          "name": "nft",
          "type": "address"
        },
        {
          "indexed": false,
          "internalType": "uint256",
          "name": "tokenId",
          "type": "uint256"
        },
        {
          "indexed": false,
          "internalType": "uint256",
          "name": "price",
          "type": "uint256"
        },
        {
          "indexed": true,
          "internalType": "address",
          "name": "seller",
          "type": "address"
        }
      ],
      "name": "Offered",
      "type": "event"
    },
    {
      "inputs": [],
      "name": "feeAccount",
      "outputs": [
        {
          "internalType": "address payable",
          "name": "",
          "type": "address"
        }
      ],
      "stateMutability": "view",
      "type": "function"
    },
    {
      "inputs": [],
      "name": "feePercent",
      "outputs": [
        {
          "internalType": "uint256",
          "name": "",
          "type": "uint256"
        }
      ],
      "stateMutability": "view",
      "type": "function"
    },
    {
      "inputs": [
        {
          "internalType": "uint256",
          "name": "_itemId",
          "type": "uint256"
        }
      ],
      "name": "getTotalPrice",
      "outputs": [
        {
          "internalType": "uint256",
          "name": "",
          "type": "uint256"
        }
      ],
      "stateMutability": "view",
      "type": "function"
    },
    {
      "inputs": [],
      "name": "itemCount",
      "outputs": [
        {
          "internalType": "uint256",
          "name": "",
          "type": "uint256"
        }
      ],
      "stateMutability": "view",
      "type": "function"
    },
    {
      "inputs": [
        {
          "internalType": "uint256",
          "name": "",
          "type": "uint256"
        }
      ],
      "name": "items",
      "outputs": [
        {
          "internalType": "uint256",
          "name": "itemId",
          "type": "uint256"
        },
        {
          "internalType": "contract IERC721",
          "name": "nft",
          "type": "address"
        },
        {
          "internalType": "uint256",
          "name": "tokenId",
          "type": "uint256"
        },
        {
          "internalType": "uint256",
          "name": "price",
          "type": "uint256"
        },
        {
          "internalType": "address payable",
          "name": "seller",
          "type": "address"
        },
        {
          "internalType": "bool",
          "name": "sold",
          "type": "bool"
        }
      ],
      "stateMutability": "view",
      "type": "function"
    },
    {
      "inputs": [
        {
          "internalType": "contract IERC721",
          "name": "_nft",
          "type": "address"
        },
        {
          "internalType": "uint256",
          "name": "_tokenId",
          "type": "uint256"
        },
        {
          "internalType": "uint256",
          "name": "_price",
          "type": "uint256"
        }
      ],
      "name": "makeItem",
      "outputs": [],
      "stateMutability": "nonpayable",
      "type": "function"
    },
    {
      "inputs": [
        {
          "internalType": "uint256",
          "name": "_itemId",
          "type": "uint256"
        }
      ],
      "name": "purchaseItem",
      "outputs": [],
      "stateMutability": "payable",
      "type": "function"
    }
  ],
  "bytecode": "0x60c060405234801561001057600080fd5b50604051611142380380611142833981810160405281019061003291906100b7565b60016000819055503373ffffffffffffffffffffffffffffffffffffffff1660808173ffffffffffffffffffffffffffffffffffffffff16815250508060a08181525050506100e4565b600080fd5b6000819050919050565b61009481610081565b811461009f57600080fd5b50565b6000815190506100b18161008b565b92915050565b6000602082840312156100cd576100cc61007c565b5b60006100db848285016100a2565b91505092915050565b60805160a05161102b610117600039600081816101e601526102970152600081816101bc01526104bc015261102b6000f3fe6080604052600436106100705760003560e01c8063bfb231d21161004e578063bfb231d2146100f6578063ca7dd37514610138578063d38ea5bf14610175578063fa00afc71461019157610070565b806365e17c9d146100755780636bfb0d01146100a05780637fd6f15c146100cb575b600080fd5b34801561008157600080fd5b5061008a6101ba565b60405161009791906109d3565b60405180910390f35b3480156100ac57600080fd5b506100b56101de565b6040516100c29190610a07565b60405180910390f35b3480156100d757600080fd5b506100e06101e4565b6040516100ed9190610a07565b60405180910390f35b34801561010257600080fd5b5061011d60048036038101906101189190610a53565b610208565b60405161012f96959493929190610afa565b60405180910390f35b34801561014457600080fd5b5061015f600480360381019061015a9190610a53565b610291565b60405161016c9190610a07565b60405180910390f35b61018f600480360381019061018a9190610a53565b6102f4565b005b34801561019d57600080fd5b506101b860048036038101906101b39190610bab565b6106c1565b005b7f000000000000000000000000000000000000000000000000000000000000000081565b60015481565b7f000000000000000000000000000000000000000000000000000000000000000081565b60026020528060005260406000206000915090508060000154908060010160009054906101000a900473ffffffffffffffffffffffffffffffffffffffff16908060020154908060030154908060040160009054906101000a900473ffffffffffffffffffffffffffffffffffffffff16908060040160149054906101000a900460ff16905086565b600060647f000000000000000000000000000000000000000000000000000000000000000060646102c29190610c2d565b60026000858152602001908152602001600020600301546102e39190610c2d565b6102ed9190610c9e565b9050919050565b600260005403610339576040517f08c379a000000000000000000000000000000000000000000000000000000000815260040161033090610d2c565b60405180910390fd5b6002600081905550600061034c82610291565b9050600060026000848152602001908152602001600020905060008311801561037757506001548311155b6103b6576040517f08c379a00000000000000000000000000000000000000000000000000000000081526004016103ad90610d98565b60405180910390fd5b813410156103f9576040517f08c379a00000000000000000000000000000000000000000000000000000000081526004016103f090610e04565b60405180910390fd5b8060040160149054906101000a900460ff161561044b576040517f08c379a000000000000000000000000000000000000000000000000000000000815260040161044290610e70565b60405180910390fd5b8060040160009054906101000a900473ffffffffffffffffffffffffffffffffffffffff1673ffffffffffffffffffffffffffffffffffffffff166108fc82600301549081150290604051600060405180830381858888f193505050501580156104b9573d6000803e3d6000fd5b507f000000000000000000000000000000000000000000000000000000000000000073ffffffffffffffffffffffffffffffffffffffff166108fc8260030154846105049190610e90565b9081150290604051600060405180830381858888f1935050505015801561052f573d6000803e3d6000fd5b5060018160040160146101000a81548160ff0219169083151502179055508060010160009054906101000a900473ffffffffffffffffffffffffffffffffffffffff1673ffffffffffffffffffffffffffffffffffffffff166323b872dd303384600201546040518463ffffffff1660e01b81526004016105b293929190610ed3565b600060405180830381600087803b1580156105cc57600080fd5b505af11580156105e0573d6000803e3d6000fd5b505050503373ffffffffffffffffffffffffffffffffffffffff168160040160009054906101000a900473ffffffffffffffffffffffffffffffffffffffff1673ffffffffffffffffffffffffffffffffffffffff168260010160009054906101000a900473ffffffffffffffffffffffffffffffffffffffff1673ffffffffffffffffffffffffffffffffffffffff167f8b4c9c8a607d67b321582dd8461041b1dc2ceeca70c8b7f37f8e02095cf2e76d86856002015486600301546040516106ac93929190610f0a565b60405180910390a45050600160008190555050565b600260005403610706576040517f08c379a00000000000000000000000000000000000000000000000000000000081526004016106fd90610d2c565b60405180910390fd5b600260008190555060008111610751576040517f08c379a000000000000000000000000000000000000000000000000000000000815260040161074890610f8d565b60405180910390fd5b6001600081548092919061076490610fad565b91905055508273ffffffffffffffffffffffffffffffffffffffff166323b872dd3330856040518463ffffffff1660e01b81526004016107a693929190610ed3565b600060405180830381600087803b1580156107c057600080fd5b505af11580156107d4573d6000803e3d6000fd5b505050506040518060c0016040528060015481526020018473ffffffffffffffffffffffffffffffffffffffff1681526020018381526020018281526020013373ffffffffffffffffffffffffffffffffffffffff168152602001600015158152506002600060015481526020019081526020016000206000820151816000015560208201518160010160006101000a81548173ffffffffffffffffffffffffffffffffffffffff021916908373ffffffffffffffffffffffffffffffffffffffff160217905550604082015181600201556060820151816003015560808201518160040160006101000a81548173ffffffffffffffffffffffffffffffffffffffff021916908373ffffffffffffffffffffffffffffffffffffffff16021790555060a08201518160040160146101000a81548160ff0219169083151502179055509050503373ffffffffffffffffffffffffffffffffffffffff168373ffffffffffffffffffffffffffffffffffffffff167f655a0cf9c8db81512be9a76dc1c5ae5380b8816ce6ad659cd61b715e2999d59a600154858560405161097d93929190610f0a565b60405180910390a36001600081905550505050565b600073ffffffffffffffffffffffffffffffffffffffff82169050919050565b60006109bd82610992565b9050919050565b6109cd816109b2565b82525050565b60006020820190506109e860008301846109c4565b92915050565b6000819050919050565b610a01816109ee565b82525050565b6000602082019050610a1c60008301846109f8565b92915050565b600080fd5b610a30816109ee565b8114610a3b57600080fd5b50565b600081359050610a4d81610a27565b92915050565b600060208284031215610a6957610a68610a22565b5b6000610a7784828501610a3e565b91505092915050565b6000819050919050565b6000610aa5610aa0610a9b84610992565b610a80565b610992565b9050919050565b6000610ab782610a8a565b9050919050565b6000610ac982610aac565b9050919050565b610ad981610abe565b82525050565b60008115159050919050565b610af481610adf565b82525050565b600060c082019050610b0f60008301896109f8565b610b1c6020830188610ad0565b610b2960408301876109f8565b610b3660608301866109f8565b610b4360808301856109c4565b610b5060a0830184610aeb565b979650505050505050565b6000610b6682610992565b9050919050565b6000610b7882610b5b565b9050919050565b610b8881610b6d565b8114610b9357600080fd5b50565b600081359050610ba581610b7f565b92915050565b600080600060608486031215610bc457610bc3610a22565b5b6000610bd286828701610b96565b9350506020610be386828701610a3e565b9250506040610bf486828701610a3e565b9150509250925092565b7f4e487b7100000000000000000000000000000000000000000000000000000000600052601160045260246000fd5b6000610c38826109ee565b9150610c43836109ee565b9250828202610c51816109ee565b91508282048414831517610c6857610c67610bfe565b5b5092915050565b7f4e487b7100000000000000000000000000000000000000000000000000000000600052601260045260246000fd5b6000610ca9826109ee565b9150610cb4836109ee565b925082610cc457610cc3610c6f565b5b828204905092915050565b600082825260208201905092915050565b7f5265656e7472616e637947756172643a207265656e7472616e742063616c6c00600082015250565b6000610d16601f83610ccf565b9150610d2182610ce0565b602082019050919050565b60006020820190508181036000830152610d4581610d09565b9050919050565b7f6974656d20646f65736e27742065786973740000000000000000000000000000600082015250565b6000610d82601283610ccf565b9150610d8d82610d4c565b602082019050919050565b60006020820190508181036000830152610db181610d75565b9050919050565b7f6e6f7420656e6f75676820657468657200000000000000000000000000000000600082015250565b6000610dee601083610ccf565b9150610df982610db8565b602082019050919050565b60006020820190508181036000830152610e1d81610de1565b9050919050565b7f6974656d20616c726561647920736f6c64000000000000000000000000000000600082015250565b6000610e5a601183610ccf565b9150610e6582610e24565b602082019050919050565b60006020820190508181036000830152610e8981610e4d565b9050919050565b6000610e9b826109ee565b9150610ea6836109ee565b9250828203905081811115610ebe57610ebd610bfe565b5b92915050565b610ecd81610b5b565b82525050565b6000606082019050610ee86000830186610ec4565b610ef56020830185610ec4565b610f0260408301846109f8565b949350505050565b6000606082019050610f1f60008301866109f8565b610f2c60208301856109f8565b610f3960408301846109f8565b949350505050565b7f5072696365206d7573742062652067726561746572207468616e207a65726f00600082015250565b6000610f77601f83610ccf565b9150610f8282610f41565b602082019050919050565b60006020820190508181036000830152610fa681610f6a565b9050919050565b6000610fb8826109ee565b91507fffffffffffffffffffffffffffffffffffffffffffffffffffffffffffffffff8203610fea57610fe9610bfe565b5b60018201905091905056fea2646970667358221220fe86ece07793725ab6dcdb2294b45a3cc818e603a8b6826aa524adc63a20d0f964736f6c634300081c0033",
  "linkReferences": {},
  "deployedLinkReferences": {}
}